:100000000C942A000C9447000C9447000C94470071
:100010000C9447000C9447000C9447000C94470044
:100020000C9447000C9447000C9447000C94470034
:100030000C9447000C9447000C9447000C94470024
:100040000C9447000C9447000C9447000C94470014
:100050000C94470011241FBECFE5D8E0DEBFCDBF12
:1000600010E0A0E6B0E0EAE2F8E002C005900D92F0
:10007000A43AB107D9F720E0A4EAB0E001C01D928C
:10008000AC3DB207E1F70E945B020C9413040C94A0
:100090000000EFE6F7E13197F1F700C0000088BB00
:1000A00084E08BBB1BBA0895EFE6F7E13197F1F7D7
:1000B00000C0000088BB85E08BBB81E08BBB08954E
:1000C00088E30E9449008EE00E94490081E00E947E
:1000D000490080E80E94490008958AB188698AB978
:1000E00080B5866880BD8DE489B910BC08955F9B9A
:1000F000FECF8CB190E00895CF93DF93EC0188811F
:10010000882331F021960E94540089918111FBCF00
:10011000DF91CF91089580E80E9449008091C70047
:100120000E9454008091C8000E9454008FED0E94EC
:1001300054008091C9000E9454008091CA000E941E
:10014000540087E20E9454008091CC000E94540029
:100150008091CD000E9454008091CE000E945400F6
:100160008091CF000E94540082E20E94540080E2FD
:100170000E9454008091AE000E945400089580ECCB
:100180000E9449008091AF000E9454008091B0000D
:100190000E9454008091B1000E9454008FED0E9493
:1001A00054008091B2000E9454008091B3000E94DC
:1001B000540087E20E9454008091B5000E945400D0
:1001C0008091B6000E9454008091B7000E945400B4
:1001D0008091B8000E94540082E20E94540080E2A4
:1001E0000E9454008091A6000E94540008958091BE
:1001F000BA0090E0855491099C01220F331F880FAB
:10020000991F880F991F880F991F280F391F409138
:10021000BB0050E045545109240F351F8091BC00AC
:1002200090E085549109AC01440F551F880F991F28
:10023000880F991F880F991F840F951F4091BD004B
:1002400050E045545109840F951FA9014B5F5F4F42
:100250004931510510F048515109FC01BD96EC336C
:10026000F10518F0FC974F5F5F4F4A30510550F190
:100270009A01ADECBCEC0E94040496958795969586
:100280008795969587959C01220F331F880F991F9C
:10029000880F991F880F991F820F931F9A01281B9F
:1002A000390BC9018B5B8093D9009A010E94040429
:1002B0009695879596958795969587958B5B809370
:1002C000D8001EC085E48093D8009A01ADECBCEC48
:1002D0000E9404049695879596958795969587959F
:1002E0009C01220F331F880F991F880F991F880FB9
:1002F000991F820F931F481B590B4B5B4093D900EA
:10030000EA30F10550F19F01ADECBCEC0E94040411
:100310009695879596958795969587959C01220F3A
:10032000331F880F991F880F991F880F991F820FFD
:10033000931F9F01281B390BC9018B5B8093DB0046
:100340009F010E94040496958795969587959695AA
:1003500087958B5B8093DA00089585E48093DA00BB
:100360009F01ADECBCEC0E94040496958795969590
:100370008795969587959C01220F331F880F991FAB
:10038000880F991F880F991F820F931FE81BF90B85
:10039000EB5BE093DB00089580E90E94490080E672
:1003A00090E00E947C000E94F7008091D8000E949B
:1003B00054008091D9000E9454008AE30E945400A6
:1003C0008091DA000E9454008091DB000E9454006A
:1003D0008AE30E9454008091BE000E9454008091E4
:1003E000BF000E945400089580ED0E94490085E6F8
:1003F00090E00E947C008091D1000E945400809186
:10040000D2000E9454008FE20E9454008091D300D9
:100410000E9454008091D4000E9454008FE20E94F8
:1004200054008091D5000E9454008091D6000E9413
:10043000540008950F931F93CF93DF9380E80E9499
:1004400049008BE690E00E947C0080EC0E9449000D
:10045000C0ECD0E005EC10E089910E945400C01778
:10046000D107D1F782E790E00E947C00DF91CF9125
:100470001F910F9108950F931F93CF93DF9380E9FE
:100480000E94490089E790E00E947C0080ED0E9474
:100490004900C7EAD0E00CEA10E089910E945400BC
:1004A000C017D107D1F78FED0E945400DF91CF9193
:1004B0001F910F9108958FEF87BB87E08ABB0E9441
:1004C000600084E890E00E947C0080EC0E9449007B
:1004D00083E990E00E947C002FEF8BE792E92150A6
:1004E00080409040E1F700C000000E946D000F2E98
:1004F000FAEB4F2EF0E05F2EF02DC1E0D0E00F2E92
:10050000F7EC6F2EF0E07F2EF02D0F2EFFEA8F2EEE
:10051000F0E09F2EF02D0F2EF0ECAF2EF0E0BF2E6E
:10052000F02D0F2EF7EACF2EF0E0DF2EF02D0F2E5C
:10053000F1EDEF2EF0E0FF2EF02D0E94770080937A
:10054000D7008432D1F70E9477008093D700873498
:10055000A1F70E9477008093D700803571F70E9441
:1005600077008093D700823541F70E94770080930F
:10057000D7008D3411F70E9477008093D700833421
:10058000E1F60E9477008093D7008C32B1F60E948A
:100590007700F20180838093D700D093A500C093A9
:1005A000A4008C32D9F00091A4001091A5000E9403
:1005B0007700F801E654FF4F80838091A40090916A
:1005C000A500FC01E654FF4F20812093D70001963F
:1005D0009093A5008093A4002C3229F70E94770005
:1005E0008093D7008C3231F00E9477008093D7003F
:1005F0008C32D1F70E947700F30180838093D7007B
:10060000D093A500C093A4008C32D9F00091A4002F
:100610001091A5000E947700F801E953FF4F8083F5
:100620008091A4009091A500FC01E953FF4F208127
:100630002093D70001969093A5008093A4002C32BC
:1006400029F70E9477008093AE000E947700809384
:10065000D7000E947700F40180838093D700D09365
:10066000A500C093A4008C32D9F00091A400109191
:10067000A5000E947700F801E155FF4F808380912B
:10068000A4009091A500FC01E155FF4F208120932B
:10069000D70001969093A5008093A4002C3229F7EF
:1006A0000E9477008093A6000E9477008093D70075
:1006B0000E947700F50180838093D700D093A50036
:1006C000C093A4008C32D9F00091A4001091A50031
:1006D0000E947700F801E054FF4F80838091A400CE
:1006E0009091A500FC01E054FF4F20812093D7009A
:1006F00001969093A5008093A4002C3229F70E94C4
:100700007700F60180838093D700D093A500C09333
:10071000A4008C32D9F00091A4001091A5000E9491
:100720007700F801E955FF4F80838091A4009091F4
:10073000A500FC01E955FF4F20812093D7000196C9
:100740009093A5008093A4002C3229F70E94770093
:10075000F70180838093D700D093A500C093A400B5
:100760008C32D9F00091A4001091A5000E9477006E
:10077000F801EF52FF4F80838091A4009091A50073
:10078000FC01EF52FF4F20812093D70001969093F8
:10079000A5008093A4002C3229F781E00E94490033
:1007A000FFE729EA83E0F15020408040E1F700C0F4
:1007B00000000E94CC010E94F4010E948B000E9464
:1007C000BF009FEFEDE3F9E49150E040F040E1F726
:1007D00000C0000081E00E9449002FE789EA93E011
:1007E000215080409040E1F700C000000E941A02B2
:1007F0000E943B02EFEFFDE329E4E150F04020408E
:10080000E1F700C0000099CEA29FB001B39FC001E4
:10081000A39F700D811D1124911DB29F700D811D2C
:0A0820001124911D0895F894FFCFF4
:10082A004E53542D00446174653A005370656564F3
:10083A003A00206B6E6F7473004469726563746961
:10084A006F6E3A002047505320496E746572666194
:10085A00636500207573696E672041544D65676151
:04086A003332000025
:00000001FF
