:100000000C942A000C943F000C943F000C943F0089
:100010000C943F000C943F000C943F000C943F0064
:100020000C943F000C943F000C943F000C943F0054
:100030000C943F000C943F000C943F000C943F0044
:100040000C943F000C943F000C943F000C943F0034
:100050000C943F0011241FBECFE5D4E0DEBFCDBF1E
:1000600010E0A0E6B0E0E8E4F5E002C005900D92F3
:10007000A037B107D9F70E94B7000C94A2020C94E4
:10008000000082BB80E885BB8FEC97E00197F1F719
:1000900000C0000015BA9FE728E381E0915020409E
:1000A0008040E1F700C00000089588E30E9441000D
:1000B0008FEC97E00197F1F700C0000081E00E940B
:1000C00041008FEC97E00197F1F700C000008EE04F
:1000D0000E9441008FEC97E00197F1F700C000000B
:1000E00080E80E9441008FEC97E00197F1F700C093
:1000F0000000089582BB80EA85BB8FEC97E00197F2
:10010000F1F700C0000080E285BB9FE728E381E0B3
:10011000915020408040E1F700C000000895CF9347
:10012000DF93EC018881882331F021960E947A00C8
:1001300089918111FBCFDF91CF9108951ABA87E899
:1001400086B980E487B9089597B18F70982B97B9D5
:10015000369A349BFECF8AE18A95F1F700C024B12C
:1001600085B190E0982F8827820F911D08951F93E5
:10017000CF93DF9300D000D01F92CDB7DEB78FEFC3
:1001800081BB80EE84BB83E087BB0E949E000E94FF
:10019000550080E690E00E948F0080EC0E944100B4
:1001A00080E00E94A400BC01882777FD8095982FED
:1001B0000E9435012EE230E940EA5CE30E94990199
:1001C0000E94FC010E940201162F972F4AE0BE01F7
:1001D0006F5F7F4F812F0E946D0212BBCE0101968F
:1001E0000E948F008AE690E00E948F00B09A80E023
:1001F00090E00F900F900F900F900F90DF91CF91A4
:100200001F91089504D06894B1118DC0089570D0E5
:1002100088F09F5790F0B92F9927B751A0F0D1F0EF
:10022000660F771F881F991F1AF0BA95C9F712C079
:10023000B13081F077D0B1E0089574C0672F782F86
:100240008827B85F39F0B93FCCF3869577956795E5
:10025000B395D9F73EF490958095709561957F4F51
:100260008F4F9F4F0895E89409C097FB3EF49095F7
:100270008095709561957F4F8F4F9F4F9923A9F07F
:10028000F92F96E9BB279395F6958795779567950E
:10029000B795F111F8CFFAF4BB0F11F460FF1BC052
:1002A0006F5F7F4F8F4F9F4F16C0882311F096E9E5
:1002B00011C0772321F09EE8872F762F05C0662393
:1002C00071F096E8862F70E060E02AF09A95660F4C
:1002D000771F881FDAF7880F9695879597F9089505
:1002E00057FD9058440F551F59F05F3F71F04795E7
:1002F000880F97FB991F61F09F3F79F087950895CC
:10030000121613061406551FF2CF4695F1DF08C0EA
:10031000161617061806991FF1CF86957105610507
:1003200008940895E894BB2766277727CB0197F9AF
:1003300008950BD0C1C0B2D028F0B7D018F09523E3
:1003400009F07AC0A8C01124EECFCADFA0F3959FB0
:10035000D1F3950F50E0551F629FF001729FBB27AC
:10036000F00DB11D639FAA27F00DB11DAA1F649F58
:100370006627B00DA11D661F829F2227B00DA11D0B
:10038000621F739FB00DA11D621F839FA00D611D91
:10039000221F749F3327A00D611D231F849F600DB2
:1003A000211D822F762F6A2F11249F5750408AF0EB
:1003B000E1F088234AF0EE0FFF1FBB1F661F771F77
:1003C000881F91505040A9F79E3F510570F034C0EE
:1003D000AACF5F3FECF3983EDCF38695779567955F
:1003E000B795F795E7959F5FC1F7FE2B880F911D95
:1003F0009695879597F908957BDFE0F09E37D8F0C2
:100400009639B8F49E3848F4672F782F8827985F7C
:10041000F9CF86957795679593959539D0F3B62F53
:10042000B1706B0F711D811D20F4879577956795CD
:10043000939508C022C077CF97F99F6780E870E056
:1004400060E00895882371F4772321F09850872B7A
:10045000762F07C0662311F499270DC09051862B83
:1004600070E060E02AF09A95660F771F881FDAF730
:10047000880F9695879597F908959F3F31F0915091
:1004800020F4879577956795B795880F911D969578
:10049000879597F908959FEF80EC089500240A94BA
:1004A0001616170618060906089500240A9412164F
:1004B0001306140605060895092E0394000C11F482
:1004C000882352F0BB0F40F4BF2B11F460FF04C02F
:1004D0006F5F7F4F8F4F9F4F0895BB274A3031F496
:1004E000992322F4BDE2909581959F4F0C94790257
:1004F000BB27FB015527AA27880F991FAA1FA417FE
:1005000010F0A41B83955051B9F7A05DAA3308F0F1
:10051000A95DA193009779F7B111B1931192CB0125
:100520000C949202DC01FC01672F71917723E1F7B3
:10053000329704C07C916D9370836291AE17BF07B0
:08054000C8F30895F894FFCF01
:1005480053706565642069733A00206D2F7300004D
:00000001FF
