:1000000029C000002FC000002DC000002BC0000040
:1000100029C0000027C0000025C0000023C0000048
:1000200021C000001FC000001DC000001BC0000058
:1000300019C0000017C0000015C0000013C0000068
:1000400011C000000FC000000DC000000BC0000078
:1000500009C0000011241FBECFE5D8E0DEBFCDBF30
:100060004AD0E3C0CDCF811103C080EC85BB089599
:10007000813019F489EF85BB0895823019F484EA40
:1000800085BB0895833019F480EB85BB08958430D7
:1000900019F489E985BB0895853019F482E985BB97
:1000A0000895863019F482E885BB0895873019F4E5
:1000B00088EF85BB0895883019F480E885BB0895E2
:1000C000893019F480E985BB08958A3011F48FE7EF
:1000D00085BB089584EE86B910BE0895806487B903
:1000E00089EF90E00197F1F700C0000084B125B1DD
:1000F00090E0922B08958FEF84BB8FE081BB81E06D
:1001000087BBE8DF0F2EF8EECF2EF3E0DF2EF02DC9
:10011000AA24A3940F2EF4E6EF2EF12CF02D0F2E2F
:10012000FDECBF2EF02D6894772471F80AE010E002
:100130006894882482F86894992493F880E0CEDF4C
:10014000EC01B6014BD0862F8EDFA2BA8DEE92E085
:100150000197F1F700C00000CE01B7013FD06B9DC1
:10016000812D1124869586958695880F982F990F55
:10017000990F890F681B862F76DF72BA8DEE92E099
:100180000197F1F700C00000CE01B80127D06B9DA8
:10019000812D1124869586958695880F982F990F25
:1001A000990F890F681B862F5EDF82BA8DEE92E071
:1001B0000197F1F700C00000CE01B8010FD053DF66
:1001C00092BA83EC99E00197F1F700C00000CD3BB3
:1001D000D24014F0A8BAB2CF18BAB0CF97FB072E0E
:1001E00016F4009406D077FD08D00BD007FC05D09C
:1001F0003EF4909581959F4F0895709561957F4F3E
:100200000895AA1BBB1B51E107C0AA1FBB1FA6175D
:10021000B70710F0A61BB70B881F991F5A95A9F7AF
:0E02200080959095BC01CD010895F894FFCF14
:00000001FF
