S00F000050574D5F4156522E73726563D9
S11300000C942A000C9434000C9434000C943400A6
S11300100C9434000C9434000C9434000C9434008C
S11300200C9434000C9434000C9434000C9434007C
S11300300C9434000C9434000C9434000C9434006C
S11300400C9434000C9434000C9434000C9434005C
S11300500C94340011241FBECFE5D8E0DEBFCDBF21
S11300600E9436000C9449000C94000088EF81BB78
S113007012BA85E783BF19BE8FEF8CBF82EB96E679
S113008029E180998CBF81999CBF829BFACF2CBFB8
S1090090F8CFF894FFCF45
S9030000FC
