S0100000466173745F50574D2E7372656333
S11300000C942A000C9434000C9434000C943400A6
S11300100C9434000C9434000C9434000C9434008C
S11300200C9434000C9434000C9434000C9434007C
S11300300C9434000C9434000C9434000C9434006C
S11300400C9434000C9434000C9434000C9434005C
S11300500C94340011241FBECFE5D8E0DEBFCDBF21
S11300600E943A000C9456000C94000089E683BF69
S1130070BB9A08950E94360080E090E00AC08CBFCD
S1130080EFE7FEE33197F1F700C000008F5F01C096
S1130090892F8F3FA1F78CBFEFE7FEE33197F1F78C
S11300A000C0000081508130B1F7F2CFF894FFCF47
S9030000FC
