S0190000426C7565746F6F74685F636F6E74726F6C2E73726563F5
S11300000C942A000C9447000C9447000C9447006D
S11300100C9447000C9447000C9447000C94470040
S11300200C9447000C9447000C9447000C94470030
S11300300C9447000C9447000C9447000C94470020
S11300400C9447000C9447000C9447000C94470010
S11300500C94470011241FBECFE5D8E0DEBFCDBF0E
S113006011E0A0E6B0E0ECE2F2E002C005900D92EF
S1130070AA39B107D9F721E0AAE9B1E001C01D927C
S1130080AA39B207E1F70E94AF000C9414010C9452
S1130090000095E095BB88BB87EB9BE00197F1F7E7
S11300A000C0000081E085BB87EB9BE00197F1F77E
S11300B000C00000089594E095BB88BB87EB9BE0EB
S11300C00197F1F700C0000015BA87EB9BE0019798
S11300D0F1F700C00000089588E30E945B0081E00E
S11300E00E945B0086E00E945B008EE00E945B0041
S11300F00895CF93DF93EC018881882331F0219612
S11301000E94490089918111FBCFDF91CF9108951D
S113011010BC83E389B98AB188618AB980B58668DD
S113012080BD08955D9BFECF8CB987EB9BE0019762
S1130130F1F700C0000008955F9BFECF8CB10895D5
S1130140CF93DF93EC018881882331F021960E94BC
S1130150920089918111FBCFDF91CF9108958FEFA8
S113016087BB87E084BB0E946C000E94880082E405
S113017091E00E94A0008DE00E9492008AE00E941B
S1130180920087E591E00E94A0008DE00E94920019
S11301908AE00E94920084E791E00E94790080EC5A
S11301A00E945B0081E891E00E9479002FE78FE4D0
S11301B092E1215080409040E1F700C000002FE719
S11301C08FE492E1215080409040E1F700C00000AC
S11301D02FE78FE492E1215080409040E1F700C086
S11301E000002FE78FE492E1215080409040E1F736
S11301F000C0000081E00E945B008AE891E00E9458
S1130200790080EC0E945B000E949C00C82F0E9431
S1130210490081E08C0F0E9492008DE00E949200C0
S10F02208AE00E949200F0CFF894FFCF17
S113022C3030303030004154004F4B0041542B558A
S113023C4152543D343830302C302C300041542B46
S113024C554152543D393630302C302C3000415409
S113025C2B554152543D31393230302C302C300036
S113026C41542B554152543D33383430302C302CBE
S113027C300041542B554152543D35373630302CD7
S113028C302C300041542B554152543D31313532D0
S113029C30302C302C300041542B554152543D32CB
S11302AC33303430302C302C300041542B554152E7
S11302BC543D3436303830302C302C300041542BF3
S11302CC554152543D3932313630302C302C3000BB
S11302DC41542B554152543D313338323430302C47
S11302EC302C300041542B4E414D453D0041542B94
S11302FC56455253494F4E3F0041542B505357448B
S113030C3D004175746F6D6174652074686520647B
S113031C6576696365730053656E64206F6E652042
S113032C4368617261637465722061742061207426
S113033C696D65004B617468666F72642052264463
S113034C004B415448464F52440020526563656942
S10D035C76656420446174613A0080
S9030000FC
