S0110000375F7365676D656E742E737265638A
S11300000C9434000C943E000C943E000C943E007E
S11300100C943E000C943E000C943E000C943E0064
S11300200C943E000C943E000C943E000C943E0054
S11300300C943E000C943E000C943E000C943E0044
S11300400C943E000C943E000C943E000C943E0034
S11300500C943E0048005C004A004C004E005000E6
S1130060520054005600580011241FBECFE5D8E0BA
S1130070DEBFCDBF0E945E000C948E000C94000085
S11300808A309105B8F4FC01E65DFF4F0C948800BA
S11300908FE308958BE508958FE4089586E6089527
S11300A08DE608958DE7089587E008958FE7089514
S11300B08FE6089580E0089586E008958FEF84BB6D
S11300C08CEF87BB85B318BA00E010E00F2EF9E07F
S11300D0EF2EF02DF12CB0992196B1992197CA30C9
S11300E0D1051CF4DD2324F005C0C02FD12F02C09C
S11300F0CE2DDF2DCE010E94400085BB8FEF99E607
S113010028E1815090402040E1F700C00000E3CF97
S1130110EE0FFF1F0590F491E02D0994F894FFCFA2
S9030000FC
